:020000020000FC
:040000000C94140048
:100024000C94280008E00EBF0FEF0DBF78940FEF7B
:100034000AB900E007B907E800937A0000EE0093DC
:100044007C0007EC00937A00FFCF2AD029D000E58A
:1000540000937A000091790007EC00937A00023350
:10006400BCF00CF41895112722275E985F98C2E320
:100074000C1B0030E9CF0A95493011F04395F9CFB4
:10008400393019F033954427F4CF569A5E9ADCCF71
:10009400102F02E3011B0E943500579A5F9AD4CFB8
:1000A4002BB95C9A5D980E945D003BB95D9A5C989F
:1000B4000E945D00089522E038E34EEA4A95F1F784
:0800C4003A95E1F72A95D1F706
:00000001FF
